:100000000EC028C027C026C025C024C023C022C0DF
:1000100021C020C01FC01EC01DC01CC01BC0112499
:100020001FBECFE5D2E0DEBFCDBF10E0A4E6B0E05A
:1000300001C01D92AA36B107E1F710E0A0E6B0E0DA
:10004000E2E8F3E002C005900D92A436B107D9F7BB
:1000500062D095C1D5CF8CE087B98FE99FE0019739
:10006000F1F700C00000369A3699FECF24B135B1C1
:10007000932F80E030E0282B392B442737FD409523
:10008000542F64EB7BE281E190E089D0C9010895AF
:100090000AC02FE738E341E0215030404040E1F70B
:1000A00000C0000001970097A1F708950F931F93D8
:1000B000CF93DF93EC018B0103D19C01B8016F5FFB
:1000C0007F4F8FEF9FE758D0C90156D06C0F7D1F2F
:1000D000CB01DF91CF911F910F910895C298BA98EB
:1000E0008DE087B986B1836C86B93699FECF0895C5
:1000F0009DE097B997B18F70907F892B87B9369A19
:100100003699FECF24B135B1932F80E030E0282B13
:10011000392BC9010895CF93DF93E0DF17BAB99A5D
:10012000B89A83E0E5DFEC0196DF2CE08138920796
:10013000D4F082E0C935D807B4F0D0DF81E0D8DF51
:100140009C01909367008093660081E0253F38070B
:1001500044F3C19AC09A84E690E09ADFC098C198AF
:100160008AE090E007C0C09A82E090E091DFC098FA
:1001700082E090E08DDFD5CF97FB092E07260AD0CD
:1001800077FD04D027D006D000201AF47095619531
:100190007F4F0895F6F7909581959F4F089597FBAF
:1001A000092E05260ED057FD04D028D00AD0001CF9
:1001B00038F450954095309521953F4F4F4F5F4F04
:1001C0000895F6F790958095709561957F4F8F4FC4
:1001D0009F4F0895AA1BBB1B51E107C0AA1FBB1F5D
:1001E000A617B70710F0A61BB70B881F991F5A95C3
:1001F000A9F780959095BC01CD010895A1E21A2E32
:10020000AA1BBB1BFD010DC0AA1FBB1FEE1FFF1FBA
:10021000A217B307E407F50720F0A21BB30BE40B0A
:10022000F50B661F771F881F991F1A9469F7609551
:100230007095809590959B01AC01BD01CF0108950B
:10024000A0E0B0E0E5E2F1E06BC0EC01688179810B
:100250008A819B81611571058105910521F464E214
:1002600079ED8BE597E02DE133EF41E050E097DF4A
:1002700079018A0127EA31E440E050E030D05B01A7
:100280006C01C801B7012CEE34EF4FEF5FEF27D0C0
:100290009B01AC012A0D3B1D4C1D5D1D57FF04C089
:1002A0002150304040405048288339834A835B8343
:1002B0003F77C901CDB7DEB7EAE04EC0C1DF089590
:1002C00080E690E0BDDF0895A0E0B0E0809360009C
:1002D00090936100A0936200B09363000895FF279C
:1002E000EE27BB27AA2760FF04C0A20FB31FE41F9D
:1002F000F51F220F331F441F551F9695879577953D
:10030000679589F70097760771F7CF01BD010895CA
:100310002F923F924F925F926F927F928F929F9215
:10032000AF92BF92CF92DF92EF92FF920F931F9303
:10033000CF93DF93CDB7DEB7CA1BDB0B0FB6F894B4
:10034000DEBF0FBECDBF09942A88398848885F84F4
:100350006E847D848C849B84AA84B984C884DF8065
:10036000EE80FD800C811B81AA81B981CE0FD11D49
:100370000FB6F894DEBF0FBECDBFED010895F8941F
:02038000FFCFAD
:040382000100000076
:00000001FF
