:100000002CC044C043C042C041C040C03FC03EC0FD
:100010003DC03CC03BC03AC039C013C137C036C038
:1000200035C034C033C03FC040C041C042C043C0EF
:1000300044C045C046C047C048C049C04AC04BC084
:1000400054C055C056C057C058C059C05AC05BC0F4
:100050005CC05DC05EC05FC060C011241FBECFED3C
:10006000CDBF10E0A0E6B0E0E0E6F4E002C005900D
:100070000D92A037B107D9F710E0A0E7B0E001C0BA
:100080001D92AC37B107E1F78CD1E8C1B9CF90E050
:10009000613019F58D30910508F040C08D5E9F4F9D
:1000A0008F939F93089592980895939808959498A4
:1000B00008959598089596980895C0980895C198C0
:1000C0000895C2980895C3980895C4980895C5984E
:1000D0000895C6980895C79808958D309105F0F455
:1000E000805E9F4F8F939F930895929A0895939A5D
:1000F0000895949A0895959A0895969A0895C09AA5
:100100000895C19A0895C29A0895C39A0895C49A09
:100110000895C59A0895C69A0895C79A0895AF920A
:10012000BF92CF92DF92EF92FF920F931F93CF93E4
:10013000DF938FEF80937500809376008093770034
:10014000809378008093790080937A0080937B007D
:10015000C0917100D0E020E030E0E7E0F0E001E0A5
:1001600010E0C901BF0153D1DC01AB58BF4FC8013A
:1001700002C0880F991F6A95E2F7BC018C91861B1B
:100180008C932F5F3F4FC217D3075CF7E09172004B
:10019000F0E07F010894E11CF11C6F010894C10894
:1001A000D108A0907100BB2420E030E0C7E0D0E08F
:1001B00001E010E02E173F0731F02E153F0519F032
:1001C0002C153D0519F5A216B30684F0C901BE0130
:1001D0001ED1DC01AB58BF4FC80102C0880F991F68
:1001E0006A95E2F7BC018C91860F0FC0C901BE0170
:1001F0000ED1DC01AB58BF4FC80102C0880F991F58
:100200006A95E2F7BC018C91861B8C932F5F3F4F60
:100210002033310579F6DF91CF911F910F91FF9037
:10022000EF90DF90CF90BF90AF90089507C0EFECB4
:10023000F7E03197F1F700C0000001970097B9F798
:1002400008951F920F920FB60F9211240F931F93D0
:100250002F933F934F935F936F937F938F939F93CE
:10026000AF93BF93CF93DF93EF93FF93E091700031
:10027000F0E0EE59FF4F808161E009DF809170006E
:100280008F5F80937000883011F41092700008E640
:1002900010E0C0E0D0E0E0917000F0E0EB58FF4FDC
:1002A000808190E00C2E02C0959587950A94E2F724
:1002B00080FD04C0F801808161E003C0F801808105
:1002C00060E0E5DE21960F5F1F4FC730D10519F7BB
:1002D000E0917000F0E0EE59FF4F808160E0D7DEE2
:1002E000FF91EF91DF91CF91BF91AF919F918F914E
:1002F0007F916F915F914F913F912F911F910F913E
:100300000F900FBE0F901F90189589B988E18AB998
:1003100086E083B908955F9BFECF8CB108950F935B
:100320001F93CF93DF93F7DFC82F8A3211F0863205
:1003300061F5F1DF082FEFDF182FEDDFD82FEBDFAE
:10034000282F30E020533040E02FF0E0CF01C0975D
:1003500068EE73E04AD0280F391F612F70E0CB019F
:10036000C09764E670E041D0280F391F4D2F50E050
:10037000CA01C0976AE070E038D0280F391FC63232
:1003800031F4309521953F4F02C020E030E0C901A3
:1003900064E170E03CD0CB01DF91CF911F910F91D0
:1003A00008958FEF87BB81BB12BA18BA8AE083BF6A
:1003B00088EC86BF89B7816089BF789483E3A5DF25
:1003C000AEDF181619061CF48093710005C0009763
:1003D00019F081958093720082E390E027DF9FDE21
:1003E000EFCF5D9BFECF8CB908955527002480FF89
:1003F00002C0060E571F660F771F6115710521F0A9
:1004000096958795009799F7952F802D089597FBDE
:10041000092E07260AD077FD04D00CD006D0002084
:100420001AF4709561957F4F0895F6F79095819530
:100430009F4F0895AA1BBB1B51E107C0AA1FBB1FFA
:10044000A617B70710F0A61BB70B881F991F5A9560
:10045000A9F780959095BC01CD010895F894FFCF40
:1004600002010503040201000C0B0A09080706003B
:00000001FF
