:100000000EC028C027C026C025C024C023C022C0DF
:1000100021C020C020C01EC01DC01CC01BC0112498
:100020001FBECFE5D2E0DEBFCDBF10E0A0E6B0E05E
:10003000EAE6F8E002C005900D92AC36B107D9F7B8
:1000400010E0ACE6B0E001C01D92A538B107E1F7C1
:1000500037D109C4D5CF1F920F920FB60F9211243A
:100060002F933F934F935F936F937F938F939F93C0
:10007000AF93EF93FF9380917E00882319F18091D5
:100080007F00882311F4C49818C080917F008930C4
:1000900068F48091800080FF02C0C49A01C0C498B7
:1000A0008091800086958093800007C080917F00BA
:1000B000893018F0C49A10927E0080917F008F5F83
:1000C00080937F00809174009091750089599F4FB3
:1000D0004BC040916C0030916D0020916E0090916A
:1000E0006F0080917000F0917100E0917200A0911A
:1000F0007300642F6F5F51E0641708F050E0530FF6
:1001000041E0531708F040E0420F31E0421708F099
:1001100030E0390F21E0391708F020E0280F91E096
:10012000281708F090E09F0F81E09F1708F080E00B
:100130008E0F71E08E1708F070E07A0F60936C00FC
:1001400050936D0040936E0030936F0020937000C9
:10015000909371008093720070937300809174008B
:1001600090917500885E9340909375008093740021
:10017000809174009091750023E0893E920708F009
:10018000A8CFFF91EF91AF919F918F917F916F9148
:100190005F914F913F912F910F900FBE0F901F9045
:1001A000189590917E009923E1F710927F0080933B
:1001B000800081E080937E0008951F93CF93DF93AA
:1001C000EC0110E002C0EDDF1F5FFE01E10FF11D49
:1001D00080818823C1F7DF91CF911F910895F89412
:1001E00020916C0030916D0040916E0050916F0035
:1001F0006091700070917100809172009091730015
:10020000789408958CE087B98FE99FE00197F1F722
:1002100000C00000369A3699FECF24B135B1932F35
:1002200080E030E0282B392B442737FD4095542FB0
:1002300064EB7BE281E190E026D2C90108950AC017
:100240002FE738E341E0215030404040E1F700C063
:10025000000001970097A1F708950F931F93CF9384
:10026000DF93EC018B01A0D29C01B8016F5F7F4F3F
:100270008FEF9FE7F5D1C901F3D16C0F7D1FCB0143
:10028000DF91CF911F910F910895C298BA988DE098
:1002900087B986B1836C86B93699FECF089597B138
:1002A0008F70907F892B87B9369A3699FECF24B10B
:1002B00035B1932F80E030E0282B392BC901089508
:1002C0002F923F924F925F926F927F928F929F9266
:1002D000AF92BF92CF92DF92EF92FF920F931F9354
:1002E000DF93CF93CDB7DEB728970FB6F894DEBF74
:1002F0000FBECDBFCADF17BAB99ABC9AC49A8AB5E5
:1003000082608ABD83B7826083BF87E689BD89B773
:10031000806189BF789412E028EE822E23E0922E2D
:1003200094E6692E712C8AE0C82ED12C7E010894A7
:10033000E11CF11C83E0B3DF5C0164DF21E0813468
:1003400092070CF4ECC04BDFE09176002090770030
:10035000309078004090790050907A0000917B00B6
:10036000B0917C00A0917D00F22FFE1BEF2FF1E0F9
:100370002E1708F0F0E0232F2219222E21E032154B
:1003800008F020E0322D3F1BF1E0231608F0F0E0EA
:100390002F2B242E231833243394421508F03324B2
:1003A000F22DF21B21E02F1608F020E0322A252F33
:1003B000241941E0521708F040E0422E431851E062
:1003C000241508F050E0452B562F551921E06517EC
:1003D00008F020E0652F641B41E0561708F040E06C
:1003E000242B572F501B41E0751708F040E0752F64
:1003F000721B21E0571708F020E0422B582F5B1B9F
:1004000021E0851708F020E0852F841B41E0581774
:1004100008F040E0242B9A1B921791F4882381F472
:10042000772371F4662361F4442051F4FF2341F4EF
:10043000383030F4373009F07DCFE13D08F47ACF21
:1004400088B3812788BBCBDE20937600309377007A
:10045000409378005093790060937A0070937B000A
:1004600080937C0090937D0081E019DF95012050FE
:100470003240280F391F309382002093810037FFCC
:1004800004C0D0928200C09281008091810090913E
:10049000820034E08130930734F082EF93E0909350
:1004A0008200809381002091810030918200C901F7
:1004B000B401D6D0062FCB0168E17CEFBFD0280F66
:1004C000391FC901B301CCD0462FCB016CE97FEFB6
:1004D000B5D0280F391FC901B601C2D0CB01D70151
:1004E000E0E6F0E058E001900D925150E1F7005D38
:1004F0000A83405D4B83482F405D4C8366EF7FEF5E
:100500009DD0280F391F205D2D839DE09E83BAE08A
:10051000BF83C70152DE88B3812788BB0BCF5FDE64
:10052000F0917600E091770030907800409079006B
:1005300050907A00A0907B0000917C00A0917D00FB
:10054000B22FBF1BFB2FB1E02F1708F0B0E0232F15
:100550002E1BE1E0321708F0E0E0322F3B1BB32FF7
:1005600031E02B1708F030E0E32B342F331921E072
:10057000431708F020E0432F4E1BE42F41E03E17C5
:1005800008F040E0242B452F441931E0541708F0BF
:1005900030E0542F521B21E0451708F020E0322BA9
:1005A000462F451921E0641708F020E0642F631BF3
:1005B00031E0461708F030E0232B472F4A1931E08D
:1005C000741708F030E0742F721B21E0471708F011
:1005D00020E0322B482F401B21E0841708F020E058
:1005E000842F831B31E0481708F030E0232B9A1B3F
:1005F000921779F4882369F4772359F4662349F430
:10060000552339F4EE2329F4BB2319F4F93C08F4FB
:1006100091CE88B3812788BBE2DD209376003093AA
:100620007700409378005093790060937A0070933C
:100630007B0080937C0090937D007CCE5527002426
:1006400080FF02C0060E571F660F771F61157105E8
:1006500021F096958795009799F7952F802D08950D
:1006600097FB092E07260AD077FD04D027D006D0A5
:1006700000201AF4709561957F4F0895F6F79095D4
:1006800081959F4F089597FB092E05260ED057FDA3
:1006900004D028D00AD0001C38F4509540953095ED
:1006A00021953F4F4F4F5F4F0895F6F790958095F6
:1006B000709561957F4F8F4F9F4F0895AA1BBB1B6D
:1006C00051E107C0AA1FBB1FA617B70710F0A61B52
:1006D000B70B881F991F5A95A9F780959095BC0173
:1006E000CD010895A1E21A2EAA1BBB1BFD010DC06E
:1006F000AA1FBB1FEE1FFF1FA217B307E407F507D2
:1007000020F0A21BB30BE40BF50B661F771F881FAD
:10071000991F1A9469F760957095809590959B0143
:10072000AC01BD01CF010895A0E0B0E0E9E9F3E03C
:100730006BC0EC01688179818A819B8161157105AB
:100740008105910521F464E279ED8BE597E02DE1D7
:1007500033EF41E050E097DF79018A0127EA31E485
:1007600040E050E030D05B016C01C801B7012CEED5
:1007700034EF4FEF5FEF27D09B01AC012A0D3B1DFB
:100780004C1D5D1D57FF04C0215030404040504873
:10079000288339834A835B833F77C901CDB7DEB7AE
:1007A000EAE04EC0C1DF089588E690E0BDDF08951D
:1007B000A0E0B0E08093680090936900A0936A0085
:1007C000B0936B000895FF27EE27BB27AA2760FF91
:1007D00004C0A20FB31FE41FF51F220F331F441FD5
:1007E000551F969587957795679589F700977607B2
:1007F00071F7CF01BD0108952F923F924F925F9202
:100800006F927F928F929F92AF92BF92CF92DF9220
:10081000EF92FF920F931F93CF93DF93CDB7DEB785
:10082000CA1BDB0B0FB6F894DEBF0FBECDBF099419
:100830002A88398848885F846E847D848C849B8470
:10084000AA84B984C884DF80EE80FD800C811B817E
:10085000AA81B981CE0FD11D0FB6F894DEBF0FBEAD
:0A086000CDBFED010895F894FFCF1D
:0C086A002A202020202020000100000097
:00000001FF
