:1000000009C021C020C01FC01EC01DC01DC01BC014
:100010001AC019C011241FBECFE9CDBF10E0A4E65D
:10002000B0E001C01D92AA36B107E1F710E0A0E6EA
:10003000B0E0EEE9F3E002C005900D92A436B107FE
:10004000D9F76ED0AAC1DCCF1F920F920FB60F92D4
:1000500011245F936F937F938F939F93AF93BF937D
:100060008091640090916500019690936500809363
:100070006400809164009091650064E670E08AD02D
:10008000009721F488B391E0892788BBBF91AF9195
:100090009F918F917F916F915F910F900FBE0F9005
:1000A0001F90189507C0EFECF7E03197F1F700C00B
:1000B000000001970097B9F708950F931F93CF930E
:1000C000DF93EC018B01CDD09C01B8016F5F7F4FB6
:1000D0008FEF9FE75FD0C9015DD06C0F7D1FCB0113
:1000E000DF91CF911F910F910895C298BA988DE03A
:1000F00087B986B1836C86B93699FECF089597B1DA
:100100008F70907F892B87B9369A3699FECF24B1AC
:1001100035B1932F80E030E0282B392BC9010895A9
:10012000CF93DF938FB582608FBD89B7846089BF1D
:1001300085E086BF83B7846083BF7894D6DF17BA23
:10014000B99AB89ACAE0D0E081E0D9DF909367000D
:1001500080936600F89480916600909167008052C9
:100160009340BE0117D077FF03C0709561957F4F14
:100170006E5F66BF7894809166009091670023E07F
:10018000803292070CF788EC90E08CDF88EC90E0EE
:1001900089DFDACF97FB092E07260AD077FD04D036
:1001A0000CD006D000201AF4709561957F4F089509
:1001B000F6F7909581959F4F0895AA1BBB1B51E1BF
:1001C00007C0AA1FBB1FA617B70710F0A61BB70BC7
:1001D000881F991F5A95A9F780959095BC01CD016C
:1001E0000895A0E0B0E0E6EFF0E086C0EC016881A1
:1001F00079818A819B81611571058105910521F4C1
:1002000064E279ED8BE597E02DE133EF41E050E0DA
:1002100050D079018A0127EA31E440E050E030D043
:100220005B016C01C801B7012CEE34EF4FEF5FEFBB
:1002300027D09B01AC012A0D3B1D4C1D5D1D57FFB6
:1002400004C02150304040405048288339834A83BD
:100250005B833F77C901CDB7DEB7EAE069C0C1DF94
:10026000089580E690E0BDDF0895A0E0B0E08093BF
:10027000600090936100A0936200B09363000895C2
:10028000FF27EE27BB27AA2760FF04C0A20FB31FDA
:10029000E41FF51F220F331F441F551F96958795A6
:1002A0007795679589F70097760771F7CF01BD01BC
:1002B000089597FB092E05260ED057FD04D04BD08C
:1002C0000AD0001C38F450954095309521953F4F49
:1002D0004F4F5F4F0895F6F7909580957095619513
:1002E0007F4F8F4F9F4F08952F923F924F925F9273
:1002F0006F927F928F929F92AF92BF92CF92DF9236
:10030000EF92FF920F931F93CF93DF93CDB7DEB79A
:10031000CA1BDB0B0FB6F894DEBF0FBECDBF09942E
:100320002A88398848885F846E847D848C849B8485
:10033000AA84B984C884DF80EE80FD800C811B8193
:10034000AA81B981CE0FD11D0FB6F894DEBF0FBEC2
:10035000CDBFED010895A1E21A2EAA1BBB1BFD0122
:100360000DC0AA1FBB1FEE1FFF1FA217B307E40794
:10037000F50720F0A21BB30BE40BF50B661F771FEC
:10038000881F991F1A9469F76095709580959095CC
:0E0390009B01AC01BD01CF010895F894FFCF91
:04039E00010000005A
:00000001FF
