:100000002CC044C043C042C041C040C03FC03EC0FD
:100010003DC03CC03BC03AC039C012C137C036C039
:1000200035C034C033C03DC03EC03FC040C041C0F9
:1000300042C043C044C045C046C047C048C049C094
:1000400051C052C053C054C055C056C057C058C00C
:1000500059C05AC05BC05CC05DC011241FBECFED4B
:10006000CDBF10E0A0E6B0E0E0E4F3E002C0059010
:100070000D92A037B107D9F710E0A0E7B0E001C0BA
:100080001D92AB37B107E1F791D058C1B9CF90E0DD
:10009000662309F5FC018D309105E8F5ED5EFF4F13
:1000A000099492980895939808959498089595982E
:1000B000089596980895C0980895C1980895C29893
:1000C0000895C3980895C4980895C5980895C6984A
:1000D0000895C7980895FC018D309105E0F4E05E25
:1000E000FF4F0994929A0895939A0895949A0895C7
:1000F000959A0895969A0895C09A0895C19A089578
:10010000C29A0895C39A0895C49A0895C59A089505
:10011000C69A0895C79A0895E09161008091710090
:10012000E80FE09371008E2F66E0FCD041E050E0D4
:100130009A0102C0220F331F9A95E2F720958E2F65
:100140008F5FF0D002C0440F551F9A95E2F7241B31
:1001500020937400209375002093760020937700FD
:10016000209378002093790020937A00EA3118F0E8
:100170008FEF80936100EE2319F481E0809361009A
:1001800008951092740010927500109276001092EB
:10019000770010927800089520ED37E004C0F9014F
:1001A0003197F1F701970097D1F70895CF93DF9337
:1001B0008FEF87BB81BB12BA18BA109274001092ED
:1001C00075001092760010927700109278008AE005
:1001D00083BF88EC86BF89B7816089BF789483E349
:1001E00089B988E18AB986E083B926E930E0C0EDB3
:1001F000D7E005C0CE010197F1F72150304021151D
:100200003105C1F789DF26E930E0F4CF1F93CF93A2
:10021000DF9310E0C0EDD7E07FDF809172008F5F49
:100220008093720082E390E0FE013197F1F701972D
:10023000D9F71F5F193181F7DF91CF911F91089591
:100240001F920F920FB60F9211240F931F932F93AB
:100250003F934F935F936F937F938F939F93AF934E
:10026000BF93CF93DF93EF93FF93E0917000F0E0A3
:10027000E859FF4F808161E00ADF809170008F5F55
:1002800080937000863011F41092700002E610E046
:10029000C0E0D0E0E0917000F0E0EC58FF4F8081CA
:1002A00090E00C2E02C0959587950A94E2F780FDA8
:1002B00004C0F801808161E003C0F801808160E042
:1002C000E6DE21960F5F1F4FC730D10519F7E09189
:1002D0007000F0E0E859FF4F808160E0D8DEFF91C8
:1002E000EF91DF91CF91BF91AF919F918F917F91CE
:1002F0006F915F914F913F912F911F910F910F90AF
:100300000FBE0F901F90189589B988E18AB986E0D1
:1003100083B908955F9BFECF8CB108955D9BFECF9E
:100320008CB90895991B79E004C0991F961708F0BD
:10033000961B881F7A95C9F780950895F894FFCF8A
:1003400002010503040201000C0B0A09080706005C
:00000001FF
