:100000000EC028C027C026C025C024C023C022C0DF
:1000100021C020C020C01EC01DC01CC01BC0112498
:100020001FBECFE5D2E0DEBFCDBF11E0A0E6B0E05D
:10003000EEE8F6E102C005900D92A438B107D9F7B9
:1000400011E0A4E8B1E001C01D92A33BB107E1F7C4
:1000500068D11BCBD5CF1F920F920FB60F921124F0
:100060002F933F934F935F936F937F938F939F93C0
:10007000AF93EF93FF9380919A01882319F18091B8
:10008000AF01882311F4C49818C08091AF01893062
:1000900068F48091B00180FF02C0C49A01C0C49886
:1000A0008091B00186958093B00107C08091AF0127
:1000B000893018F0C49A10929A018091AF018F5F35
:1000C0008093AF01809190019091910189599F4F48
:1000D0004BC0409188013091890120918A01909113
:1000E0008B0180918C01F0918D01E0918E01A091A6
:1000F0008F01642F6F5F51E0641708F050E0530FD9
:1001000041E0531708F040E0420F31E0421708F099
:1001100030E0390F21E0391708F020E0280F91E096
:10012000281708F090E09F0F81E09F1708F080E00B
:100130008E0F71E08E1708F070E07A0F60938801DF
:100140005093890140938A0130938B0120938C0155
:1001500090938D0180938E0170938F018091900117
:1001600090919101885E93409093910180939001CA
:10017000809190019091910123E0893E920708F0CF
:10018000A8CFFF91EF91AF919F918F917F916F9148
:100190005F914F913F912F910F900FBE0F901F9045
:1001A000189590919A019923E1F71092AF018093ED
:1001B000B00181E080939A0108951F93CF93DF935C
:1001C000EC0110E002C0EDDF1F5FFE01E10FF11D49
:1001D00080818823C1F7DF91CF911F910895F89412
:1001E000209188013091890140918A0150918B01C1
:1001F00060918C0170918D0180918E0190918F01A1
:10020000789408958CE087B98FE99FE00197F1F722
:1002100000C00000369A3699FECF24B135B1932F35
:1002200080E030E0282B392B442737FD4095542FB0
:1002300064EB7BE281E190E04CD9C9010895FB01B8
:10024000EE0FFF1FE80FF91F06C092918291938372
:1002500082836150704016161706BCF30895282F4C
:10026000392FF90180E090E003C0119211920196BC
:1002700068177907D4F30895282F392FF90180E002
:1002800090E020E030E006C041915191840F951F2D
:100290002F5F3F4F26173707BCF3F4D8CB010895E3
:1002A0000AC02FE738E341E0215030404040E1F7F9
:1002B00000C0000001970097A1F708950F931F93C6
:1002C000CF93DF93EC018B01B8D99C01B8016F5F2C
:1002D0007F4F8FEF9FE7EAD8C901E8D86C0F7D1FE9
:1002E000CB01DF91CF911F910F910895C298BA98D9
:1002F0008DE087B986B1836C86B93699FECF0895B3
:1003000097B18F70907F892B87B9369A3699FECF37
:1003100024B135B1932F80E030E0282B392BC9016F
:1003200008952F923F924F925F926F927F928F9299
:100330009F92AF92BF92CF92DF92EF92FF920F9374
:100340001F93DF93CF93CDB7DEB72E970FB6F894F8
:10035000DEBF0FBECDBFCADF17BAB99AB89ABC9A32
:10036000C49A8AB582608ABD83B7826083BF87E6FC
:1003700089BD89B7806189BF78948BE991E064E693
:1003800070E06DDF4424439464E0262E312C5AE063
:10039000752E7E010894E11CF11C4DE0642E83E073
:1003A000AFDF8C012FDF2CE0813892070CF493C172
:1003B00016DFF0919201E091930190909401A0904A
:1003C0009501B0909601C0909701D0909801B0919E
:1003D0009901A22FAF1BF1E02A1708F0F0E0232FBC
:1003E0002E1BE1E0321708F0E0E0322F3F1BF32F25
:1003F00031E02F1708F030E0E32B342F391921E0DA
:10040000431708F020E0432F4E1BE42F41E03E1736
:1004100008F040E0242B452F4A1931E0541708F02A
:1004200030E0542F521B21E0451708F020E0322B1A
:10043000462F4B1921E0641708F020E0642F631B5E
:1004400031E0461708F030E0232B472F4C1931E0FC
:10045000741708F030E0742F721B21E0471708F082
:1004600020E0322B482F4D1921E0841708F020E0BE
:10047000842F831B31E0481708F030E0232B9B1BAF
:10048000921791F4882381F4772371F4662361F441
:10049000552351F4EE2341F4F23030F4F13009F0F9
:1004A0007ECFA53F08F47BCF8091B1019091B2013E
:1004B000B101FCD7009721F488B392E0892788BB6B
:1004C0008EDE2093920130939301409394015093D8
:1004D0009501609396017093970180939801909392
:1004E00099018BE991E06AE070E0C6DE9A8789871E
:1004F00081E006DF5C019093850180938401D090B8
:100500008601B501882777FD8095982F0AD520E0D0
:1005100030E040EA51E43CD36B877C878D879E872F
:10052000C80162E370E0AED7882777FD8095982FE9
:10053000F8D420E030E040E85FE3D8D29B01AC0182
:100540006B857C858D859E8518D4C62E972E882E2A
:10055000592E8D2D672D8AD7092F10E0000F111FFE
:1005600005561E4F6C2D792D882D952D4FD1F801F4
:1005700071836083D394D092860180918701882310
:1005800009F05BC029853A85B901882777FD8095F8
:10059000982FC7D42C2D392D482D552DCED220E0A3
:1005A00030E040E054E4A2D218D520E034E0261B2D
:1005B000370B37FD05C044E02130340724F405C073
:1005C0002AE030E002C022EF33E0C90168EE73E0B8
:1005D0006DD7062FCB0168E17CEF36D7280F391F86
:1005E000C90164E670E062D7462FCB016CE97FEF6A
:1005F0002BD7280F391FC9016AE070E057D7CB010C
:10060000D701E0E6F0E058E001900D925150E1F79B
:10061000005D0A83405D4B83482F405D4C8366EF4D
:100620007FEF12D7280F391F205D2D836E827F82C6
:10063000C701C3DD4092870138C0C50168EE73E091
:1006400035D7062FCB0168E17CEFFED69C012A0D41
:100650003B1DC90164E670E029D7462FCB016CE948
:100660007FEFF2D6280F391FC9016AE070E01ED76C
:10067000CB01D701E8E6F0E058E001900D9251502F
:10068000E1F7005D0A83405D4B83482F405D4C835A
:1006900066EF7FEFD9D6280F391F205D2D836E823C
:1006A0007F82C7018ADD109287018091B10190910C
:1006B000B201B101FBD6009721F488B392E08927FB
:1006C00088BB8091B1019091B20101969093B201E3
:1006D0008093B10164CE83DDF0919201E0919301AA
:1006E000A0909401B0909501C0909601D090970190
:1006F00000919801A0919901B22FBF1BFB2FB1E08F
:100700002F1708F0B0E0232F2E1BE1E0321708F07E
:10071000E0E0322F3B1BB32F31E02B1708F030E025
:10072000E32B342F3A1921E0431708F020E0432F40
:100730004E1BE42F41E03E1708F040E0242B452FEC
:100740004B1931E0541708F030E0542F521B21E0D0
:10075000451708F020E0322B462F4C1921E0641792
:1007600008F020E0642F631B31E0461708F030E00A
:10077000232B472F4D1931E0741708F030E0742F08
:10078000721B21E0471708F020E0322B482F401B56
:1007900021E0841708F020E0842F831B31E0481704
:1007A00008F030E0232B9A1B921779F4882369F420
:1007B000772359F4662349F4552339F4EE2329F4B9
:1007C000BB2319F4F93C08F4EACD88B3842588BB2F
:1007D00006DD20939201309393014093940150934E
:1007E000950160939601709397018093980190937F
:1007F0009901D701E0E7F0E088E001900D92815087
:10080000E1F76E827F82C701D8DCC9CDEF92FF92FB
:100810000F931F937B018C0120E030E040E05FE408
:1008200055D387FD0FC0C801B70120E030E040E09C
:100830005FE483D1D2D39B01AC01205030404040D3
:10084000504805C0C801B701C8D39B01AC01B9012C
:10085000CA011F910F91FF90EF900895A0E0B0E0C2
:10086000E3E3F4E077C6FC01EA018081823008F41A
:1008700038C1DB019C91923008F430C1843059F4C6
:10088000943009F02EC1918111968C91119798178F
:1008900009F021C126C1943009F420C19230B1F48D
:1008A000823009F01EC1CA01AF0128E0DA010D90C3
:1008B000AD01DC010D92CD012150C1F7DB01119694
:1008C0008C9111979181892389830AC1823009F41F
:1008D00005C1C280D380DB0112966D907C90139786
:1008E00024813581468157811496ED90FD900D91BC
:1008F0001C911797C601861997095C0197FF04C0E0
:10090000AA24BB24A81AB90AB0E2AB16B1040CF0B1
:1009100061C0181619066CF5370148010A2C04C08D
:1009200096948794779467940A94D2F781E090E044
:10093000A0E0B0E00A2C04C0880F991FAA1FBB1FBB
:100940000A94D2F70197A109B1098E219F21A02312
:10095000B123EE24FF248701E3940097A105B1059C
:1009600019F4EE24FF248701E628F728082919291D
:100970003CC00097D1F1CA0CDB1C39014A010A2C9A
:1009800004C096948794779467940A94D2F781E090
:1009900090E0A0E0B0E00A2C04C0880F991FAA1FC5
:1009A000BB1F0A94D2F70197A109B10982239323AF
:1009B000A423B52321E030E040E050E00097A105FA
:1009C000B10519F420E030E0A9012629372948298A
:1009D00059290BC06C147D0424F4EE24FF248701F4
:1009E00004C0630120E030E0A9018181FB01918115
:1009F000891709F445C0882349F0D801C701821B33
:100A0000930BA40BB50B9C01AD0104C02E193F093B
:100A1000400B510B57FD04C01982DB82CA820BC008
:100A200081E08983DB82CA8250954095309521957B
:100A30003F4F4F4F5F4F2C833D834E835F830DC0ED
:100A4000880F991FAA1FBB1F8C839D83AE83BF8312
:100A50008A819B8101979B838A838C819D81AE8152
:100A6000BF819C01AD0121503040404050402F3F9C
:100A7000EFEF3E07EFEF4E07EFE35E0708F30BC023
:100A80008983DB82CA822E0D3F1D401F511F2C839C
:100A90003D834E835F8383E088832C813D814E813B
:100AA0005F8157FF1DC0DA01C90181709070A0708D
:100AB000B0705695479537952795822B932BA42B8D
:100AC000B52B8C839D83AE83BF838A819B810196E6
:100AD0009B838A8305C0E8E7F0E003C0FB0101C007
:100AE000FE01CF01CDB7DEB7EEE050C5A0E2B0E029
:100AF000EBE7F5E037C569837A838B839C832D838D
:100B00003E834F83588789E0E82EF12CEC0EFD1EC2
:100B1000CE010196B701D6D38E010F5E1F4FCE01D5
:100B20000596B801CFD3C701B801AE01475E5F4F4C
:100B300095DEFCD2A096E6E031C5A0E2B0E0E2EAA4
:100B4000F5E010C569837A838B839C832D833E8374
:100B50004F8358878E01075F1F4FCE010196B80162
:100B6000B1D391E1E92EF12CEC0EFD1ECE010596DC
:100B7000B701A8D38A8991E089278A8BC801B70178
:100B8000AE01475E5F4F6ADED1D2A096E6E006C5B1
:100B9000A0E2B0E0EDECF5E0D9C469837A838B8301
:100BA0009C832D833E834F835887CE010196BE01DF
:100BB000675F7F4F87D3CE010596BE016F5E7F4F83
:100BC00081D39985923078F089898230C0F0943051
:100BD00019F4823041F4CBC0843019F4923079F4A6
:100BE000C6C0923051F481E02A859A89291709F408
:100BF00080E08A87CE010996BCC0823051F481E042
:100C00002A859A89291709F480E08A8BCE014196BA
:100C1000B0C06D847E848F849888ED88FE880F89AB
:100C2000188DE0E2F0E080E090E0DC01AA24BB2433
:100C3000650120E030E0A901B301617070706115B9
:100C40007105D1F02E0D3F1D401F511F15012601CA
:100C5000280E391E4A1E5B1E81E090E0A0E0B0E045
:100C60002E153F054007510718F080E090E0DC01A9
:100C7000820D931DA41DB51DAA0CBB1CCC1CDD1C34
:100C800017FF09C061E0262E312C412C512CA228DF
:100C9000B328C428D528319749F0EE0CFF1C001F5B
:100CA000111F9694879477946794C6CF6B897C893B
:100CB000EB85FC856E0F7F1F6E5F7F4F7C8F6B8F88
:100CC00061E0EA857A89E71709F460E06A8F6B8D45
:100CD0007C8D10C0FC01E170F070309729F05695C2
:100CE0004795379527955068B695A7959795879519
:100CF0006F5F7F4FB7FDEECF0CC0880F991FAA1F03
:100D0000BB1F57FD8160220F331F441F551F6150C9
:100D100070408030E0E09E07E0E0AE07E0E4BE0710
:100D200060F36B8F7C8F6FE7E62EF12C012D112D78
:100D3000E822F9220A231B2360E4E616F1040105E8
:100D4000110561F487FD0AC02115310541055105E2
:100D500029F0805C9F4FAF4FBF4F80788D8F9E8F63
:100D6000AF8FB8A383E0898FCE01499602C088E790
:100D700090E0DCD1A096E2E105C4A8E1B0E0E2ECAD
:100D8000F6E0ECC369837A838B839C832D833E8357
:100D90004F8358878E01075F1F4FCE010196B80120
:100DA00091D281E1E82EF12CEC0EFD1ECE010596CC
:100DB000B70188D29985923008F483C0898982303E
:100DC00008F47BC02A853A8923272A87943011F0BA
:100DD000923021F4981709F06CC071C0843039F456
:100DE0001D861E861F86188A1C861B866AC0823056
:100DF00019F484E0898765C08B859C852B893C89A3
:100E0000821B930B9C878B872D853E854F85588948
:100E1000ED88FE880F89188D2E153F054007510774
:100E200038F4220F331F441F551F01979C878B876F
:100E30006FE170E0A12CB12CC12CA0E4DA2E80E08F
:100E400090E0DC012E153F054007510740F08A294C
:100E50009B29AC29BD292E193F09400B510BD69473
:100E6000C794B794A794220F331F441F551F615096
:100E7000704041F76FE7E62EF12C012D112DE8228D
:100E8000F9220A231B2360E4E616F104010511058B
:100E900061F487FD0AC0211531054105510529F08E
:100EA000805C9F4FAF4FBF4F80788D879E87AF8705
:100EB000B88B8E01075F1F4F04C0870102C008E78F
:100EC00010E0C80133D16896EAE064C3A8E1B0E05D
:100ED000EBE6F7E047C369837A838B839C832D839A
:100EE0003E834F8358878E01075F1F4FCE010196C7
:100EF000B801E8D181E1E82EF12CEC0EFD1ECE0107
:100F00000596B701DFD18985823038F08989823032
:100F100020F0C801B7013FD201C08FEF6896E6E02C
:100F20003DC3A8E0B0E0E6E9F7E01CC37B018C011B
:100F300083E08983D801C7018827B7FD8395992766
:100F4000AA27BB27282F8A83E114F1040105110584
:100F500019F482E0898336C08EE190E09C838B8314
:100F6000222389F080E0E81680E0F80680E0080798
:100F700080E8180759F110950095F094E094E11C71
:100F8000F11C011D111DED82FE820F831887C8011F
:100F9000B70172D09C01215030401216130694F410
:100FA000022E04C0EE0CFF1C001F111F0A94D2F782
:100FB000ED82FE820F8318878EE190E0821B930BF7
:100FC0009C838B83CE010196B1D004C060E070E0B9
:100FD00080E09FEC2896E6E0E1C2ACE0B0E0E2EF12
:100FE000F7E0C4C269837A838B839C83CE01019628
:100FF000BE016B5F7F4F66D18D81823081F182307F
:1010000070F1843021F48E81882369F10AC02F8128
:10101000388537FD24C06E812F3131053CF06623C1
:1010200011F120E030E040E050E821C08EE190E096
:10103000821B930B29853A854B855C8504C05695A8
:101040004795379527958A95D2F7662381F0509575
:101050004095309521953F4F4F4F5F4F08C020E09E
:1010600030E0A90104C02FEF3FEF4FEF5FE7B90178
:10107000CA012C96E2E096C2AF92BF92CF92DF9265
:10108000EF92FF920F931F937B018C0180E0E81693
:1010900080E0F80681E0080780E0180758F4EFEFD9
:1010A000EE16F1040105110509F090F480E090E0DE
:1010B000DC0117C0F0E0EF16F0E0FF06F0E00F07EC
:1010C000F1E01F0750F480E190E0A0E0B0E009C03B
:1010D00088E090E0A0E0B0E004C088E190E0A0E00B
:1010E000B0E020E230E040E050E0281B390B4A0B32
:1010F0005B0B5701680104C0D694C794B794A794BA
:101100008A95D2F7D601C50180589F4FFC01808196
:10111000281B310941095109C9011F910F91FF9005
:10112000EF90DF90CF90BF90AF900895EF92FF9235
:101130000F931F93CF93DF93FC0124813581468168
:10114000578161818081823020F44061EFEFF0E0CF
:10115000A3C0843009F49BC0823009F492C02115E9
:1011600031054105510509F48FC00280F381E02D5E
:101170007FEFE238F7070CF05AC0C2E8DFEFCE1B72
:10118000DF0BCA31D1056CF579018A010C2E04C040
:1011900016950795F794E7940A94D2F781E090E0CA
:1011A000A0E0B0E00C2E04C0880F991FAA1FBB1F3F
:1011B0000A94D2F70197A109B10982239323A423AA
:1011C000B52321E030E040E050E00097A105B105F3
:1011D00019F420E030E0A9012E293F29402B512BA2
:1011E00003C020E030E0A901DA01C9018F779070D7
:1011F000A070B07080349105A105B10539F427FFC6
:1012000009C0205C3F4F4F4F5F4F04C0215C3F4FF0
:101210004F4F5F4FE1E0F0E0203080E0380780E0A2
:10122000480780E4580728F5E0E0F0E022C0E03805
:10123000F1056CF5E158FF4FDA01C9018F77907025
:10124000A070B07080349105A105B10539F427FF75
:1012500009C0205C3F4F4F4F5F4F04C0215C3F4FA0
:101260004F4F5F4F57FF05C05695479537952795C8
:10127000319687E056954795379527958A95D1F70A
:101280000BC0E0E0F0E005C0E0E0F0E005C0EFEF0B
:10129000F0E020E030E0A9018E2F87958827879520
:1012A000942F9F77679566276795E695A92FA82BBA
:1012B000FE2FF62B622F732F8A2F9F2FCDB7DEB70D
:1012C000E6E06CC1DC01FB012C9111963C91119779
:1012D00012968C911297482F4F7750E0982F991FB4
:1012E0009927991F13966C911397862F880F892B36
:1012F00090E0661F6627661F6183009739F5211508
:1013000031054105510511F482E029C082E89FEFC3
:101310009383828367E0220F331F441F551F6A9512
:10132000D1F783E0808309C0220F331F441F551F6C
:1013300082819381019793838283203080E03807F4
:1013400080E0480780E4580778F320C08F3F91057C
:1013500079F4211531054105510519F484E08083A4
:10136000089544FF03C081E0808310C010820EC046
:101370008F5790409383828383E0808387E0220F9E
:10138000331F441F551F8A95D1F75064248335833A
:10139000468357830895FC01DB019081923008F465
:1013A00049C08C91823008F445C0943051F4618179
:1013B0008430B1F511962C91119730E0261B31093C
:1013C00041C0843021F0923041F48230B1F1119665
:1013D0008C9111978823A1F12DC06181823001F198
:1013E00011968C9111976817D9F422813381129646
:1013F0008D919C9113978217930794F028173907C2
:10140000BCF0248135814681578114968D919D9140
:101410000D90BC91A02D82179307A407B50718F46F
:10142000662341F00DC0281739074A075B0728F4E7
:10143000662331F021E030E005C020E030E002C05A
:101440002FEF3FEFC90108955527002480FF02C008
:10145000060E571F660F771F6115710521F09695CF
:101460008795009799F7952F802D0895991B79E01E
:1014700004C0991F961708F0961B881F7A95C9F724
:1014800080950895AA1BBB1B51E107C0AA1FBB1F73
:10149000A617B70710F0A61BB70B881F991F5A9500
:1014A000A9F780959095BC01CD01089597FB092E71
:1014B00007260AD077FD04D0E5DF06D000201AF415
:1014C000709561957F4F0895F6F7909581959F4FA0
:1014D000089597FB092E05260ED057FD04D014D091
:1014E0000AD0001C38F450954095309521953F4F17
:1014F0004F4F5F4F0895F6F79095809570956195E1
:101500007F4F8F4F9F4F0895A1E21A2EAA1BBB1B3E
:10151000FD010DC0AA1FBB1FEE1FFF1FA217B307BF
:10152000E407F50720F0A21BB30BE40BF50B661FD5
:10153000771F881F991F1A9469F760957095809599
:1015400090959B01AC01BD01CF0108952F923F9270
:101550004F925F926F927F928F929F92AF92BF92C3
:10156000CF92DF92EF92FF920F931F93CF93DF936F
:10157000CDB7DEB7CA1BDB0B0FB6F894DEBF0FBECC
:10158000CDBF09942A88398848885F846E847D8419
:101590008C849B84AA84B984C884DF80EE80FD801B
:1015A0000C811B81AA81B981CE0FD11D0FB6F89491
:1015B000DEBF0FBECDBFED010895A0E0B0E0E2EECA
:1015C000FAE0CCCFEC01688179818A819B81611539
:1015D00071058105910521F464E279ED8BE597E0D1
:1015E0002DE133EF41E050E074DF79018A0127EA11
:1015F00031E440E050E030D05B016C01C801B7013C
:101600002CEE34EF4FEF5FEF27D09B01AC012A0D9A
:101610003B1D4C1D5D1D57FF04C021503040404014
:101620005048288339834A835B833F77C901CDB70C
:10163000DEB7EAE0AFCFC1DF089580E891E0BDDF1B
:101640000895A0E0B0E08093800190938101A09381
:101650008201B09383010895FF27EE27BB27AA27B5
:1016600060FF04C0A20FB31FE41FF51F220F331F3A
:10167000441F551F969587957795679589F700972D
:0E168000760771F7CF01BD010895F894FFCFF2
:10168E0026202020202020002A202020202020007C
:10169E002630303130202000000000000000000015
:1016AE0000010202030303030404040404040404FB
:1016BE0005050505050505050505050505050505CC
:1016CE0006060606060606060606060606060606AC
:1016DE00060606060606060606060606060606069C
:1016EE00070707070707070707070707070707077C
:1016FE00070707070707070707070707070707076C
:10170E00070707070707070707070707070707075B
:10171E00070707070707070707070707070707074B
:10172E00080808080808080808080808080808082B
:10173E00080808080808080808080808080808081B
:10174E00080808080808080808080808080808080B
:10175E0008080808080808080808080808080808FB
:10176E0008080808080808080808080808080808EB
:10177E0008080808080808080808080808080808DB
:10178E0008080808080808080808080808080808CB
:10179E0008080808080808080808080808080808BB
:0417AE000100000036
:00000001FF
