:100000000EC028C027C026C025C024C023C022C0DF
:1000100021C020C0C7C11EC01DC01CC01BC01124F0
:100020001FBECFE5D2E0DEBFCDBF10E0A0E6B0E05E
:10003000E6EAF4E002C005900D92A037B107D9F7C7
:1000400010E0A0E7B0E001C01D92A638B107E1F7CB
:1000500093D027C2D5CFC39A87E893E10197F1F7F0
:1000600000C00000C39887E893E10197F1F700C052
:1000700000000895C29A8DEE92E00197F1F700C05A
:100080000000C2988DEE92E00197F1F700C00000E9
:100090000895EF92FF920F931F93CF93DF937C010C
:1000A000EC01CC0FDD1FC05ADF4F87010AC09881D9
:1000B0002296917088B38E7F892B88BBCCDF0F5F2F
:1000C0001F4F083011059CF300E610E0C0E0D0E0BF
:1000D0000BC0F80190810E5F1F4F917088B38E7F27
:1000E000892B88BBB8DF2196CE15DF0594F3C2DFDC
:1000F000DF91CF911F910F91FF90EF900895C498D9
:1001000083EC99E00197F1F700C00000C49A83ECFA
:1001100099E00197F1F700C000000895C498BC98D9
:100120008DE087B986B1836C86B93699FECF089584
:1001300097B18F70907F892B87B9369A3699FECF09
:1001400024B135B1932F80E030E0282B392BC90141
:100150000895F894209170003091710040917200E0
:1001600050917300609174007091750080917600D9
:1001700090917700789408958F929F92AF92BF925A
:10018000CF92DF92EF92FF920F931F93CF93DF9363
:10019000C5DFB89AB99ABA9ABB9AC1988AB58260F3
:1001A0008ABD83B7826083BF87E689BD89B78061D6
:1001B00089BF7894CEDFA22FAC50F1E0A21708F0EF
:1001C000F0E0E32FEF5FB1E0E31708F0B0E0FE0FDF
:1001D00021E0FE1708F020E02B2B240FE1E024178C
:1001E00008F0E0E0E50F31E0E51708F030E0532FCC
:1001F000560F41E0561708F040E0470F31E047172F
:1002000008F030E0380F61E0381708F060E0690F5F
:10021000A0937A00F0937B0020937C00E0937D0014
:1002200050937E0040937F00309380006093810064
:1002300091E0892E912C82E07BDFEC01A0907A0086
:10024000B0907B00C0907C00D0907D0010917E002B
:1002500000917F00F0908000E09081007ADFE91645
:1002600020F19E1509F07FC0F816F8F08F1509F0FF
:100270007AC00717D0F0701709F075C01617A8F0EC
:10028000611709F070C0D51680F05D1509F06BC0DC
:10029000C41658F04C1509F066C0B31630F03B1583
:1002A00009F061C0A21608F05EC0809182009091B2
:1002B00083009E01281B390BC90137FF03C09095AD
:1002C00081959F4F833391050CF44DC0809184003C
:1002D00090918500009729F4909285008092840087
:1002E00004C0109285001092840033DFA22FAC501E
:1002F000F1E0A21708F0F0E0E32FEF5FB1E0E317C1
:1003000008F0B0E0FE0F21E0FE1708F020E02B2BF4
:10031000240FE1E0241708F0E0E0E50F31E0E517F5
:1003200008F030E0532F560F41E0561708F040E038
:10033000470F31E0471708F030E0380F61E0381719
:1003400008F060E0690FA0937A00F0937B0020939F
:100350007C00E0937D0050937E0040937F003093BB
:1003600080006093810080918400909185000097C7
:1003700059F407E010E0C8018CDE015010403FEF57
:100380000F3F1307C1F709C000E010E0C80181DE8C
:100390000F5F1F4F08301105C9F7D0938300C0933A
:1003A000820049CF1F920F920FB60F9211242F9304
:1003B0003F934F935F936F937F938F939F93AF93ED
:1003C000EF93FF93809178009091790089599F4F26
:1003D0004BC040917000309171002091720090915B
:1003E000730080917400F0917500E0917600A09107
:1003F0007700642F6F5F51E0641708F050E0530FEF
:1004000041E0531708F040E0420F31E0421708F096
:1004100030E0390F21E0391708F020E0280F91E093
:10042000281708F090E09F0F81E09F1708F080E008
:100430008E0F71E08E1708F070E07A0F60937000F5
:1004400050937100409372003093730020937400B6
:100450009093750080937600709377008091780078
:1004600090917900885E9340909379008093780012
:10047000809178009091790023E0893E920708F0FE
:10048000A8CFFF91EF91AF919F918F917F916F9145
:100490005F914F913F912F910F900FBE0F901F9042
:0604A0001895F894FFCF4F
:1004A6000100010000000000000000000000000044
:00000001FF
