:100000000EC028C027C026C025C024C023C022C0DF
:1000100021C020C01DC11EC01DC01CC01BC011249A
:100020001FBECFE5D2E0DEBFCDBF10E0A0E6B0E05E
:10003000EEE9F8E002C005900D92A437B107D9F7B8
:1000400010E0A4E7B0E001C01D92AA38B107E1F7C3
:1000500096D123C4D5CF1092610010926000109207
:10006000630010926200109265001092640010927A
:10007000670010926600109269001092680010925A
:100080006B0010926A0010926D0010926C0010923A
:100090006F0010926E00883091054CF4FC01EE0F59
:1000A000FF1FE05AFF4F81E090E091838083089525
:1000B000C39A87E893E10197F1F700C00000C39865
:1000C00087E893E10197F1F700C000000895C29A14
:1000D0008DEE92E00197F1F700C00000C2988DEE1E
:1000E00092E00197F1F700C000000895EF92FF92AF
:1000F0000F931F93CF93DF937C01EC01CC0FDD1F97
:10010000C05ADF4F87010AC098812296917088B348
:100110008E7F892B88BBCCDF0F5F1F4F0830110506
:100120009CF300E610E0C0E0D0E00BC0F801908145
:100130000E5F1F4F917088B38E7F892B88BBB8DF0D
:100140002196CE15DF0594F3C2DFDF91CF911F9189
:100150000F91FF90EF900895CF93DF931092650079
:10016000109264001092670010926600109269006D
:100170001092680010926B0010926A0010926D004D
:1001800010926C0010926F0010926E0081E090E06F
:10019000909361008093600090936300809362006D
:1001A0008091760090917700009751F4C7E0D0E0FD
:1001B000CE019CDF21978FEFCF3FD807C9F708C04A
:1001C000C0E0D0E0CE0192DF2196C830D105D1F752
:1001D000DF91CF910895C49883EC99E00197F1F7EE
:1001E00000C00000C49A83EC99E00197F1F700C0C9
:1001F00000000895C498BC988DE087B986B1836CDF
:1002000086B93699FECF089597B18F70907F892B6C
:1002100087B9369A3699FECF24B135B1932F80E055
:1002200030E0282B392BC9010895F89420917800EB
:100230003091790040917A0050917B0060917C0070
:1002400070917D0080917E0090917F007894089558
:100250001F920F920FB60F9211242F933F934F933B
:100260005F936F937F938F939F93AF93EF93FF93DE
:10027000809180009091810089599F4F4BC040919F
:1002800078003091790020917A0090917B008091E4
:100290007C00F0917D00E0917E00A0917F00642FB2
:1002A0006F5F51E0641708F050E0530F41E05317BF
:1002B00008F040E0420F31E0421708F030E0390F1B
:1002C00021E0391708F020E0280F91E0281708F006
:1002D00090E09F0F81E09F1708F080E08E0F71E0A3
:1002E0008E1708F070E07A0F6093780050937900D1
:1002F00040937A0030937B0020937C0090937D00A4
:1003000080937E0070937F008091800090918100A7
:10031000885E93409093810080938000809180005C
:100320009091810023E0893E920708F0A8CFFF91C9
:10033000EF91AF919F918F917F916F915F914F91CD
:100340003F912F910F900FBE0F901F9018950F9314
:100350001F93CF93DF93EC018B0103D29C01B80173
:100360006F5F7F4F8FEF9FE795D1C90193D16C0FDE
:100370007D1FCB01DF91CF911F910F910895AF9217
:10038000BF92CF92DF92EF92FF920F931F93DF9372
:10039000CF9300D00F92CDB7DEB7B89AB99ABA9A78
:1003A000BB9AC1988AB582608ABD83B7826083BFD9
:1003B00087E689BD89B7806189BF789436DFA22F2F
:1003C000AC50F1E0A21708F0F0E0E32FEF5FB1E0EE
:1003D000E31708F0B0E0FE0F21E0FE1708F020E080
:1003E0002B2B240FE1E0241708F0E0E0E50F31E0CB
:1003F000E51708F030E0532F560F41E0561708F08C
:1004000040E0470F31E0471708F030E0380F61E077
:10041000381708F060E0690FA0938200F093830022
:1004200020938400E09385005093860040938700DA
:10043000309388006093890082E090E065E070E08E
:1004400086DF8C01EE24FF2404C086DE0894E11CC4
:10045000F11CE016F106CCF3C0908200D09083002E
:10046000A090840000918500E0908600B090870005
:1004700010918800F0908900D8DEF916E0F09F1501
:1004800059F71817C0F0811739F7B716A0F07B1588
:1004900019F7E61680F06E15F9F6051760F050179B
:1004A000D9F6A41640F04A15B9F6D31620F03D153A
:1004B00099F6C21688F680917600909177000097A1
:1004C00039F481E090E0909377008093760004C047
:1004D0001092770010927600A8DEF52E8B01D82EB0
:1004E000E92E81E090E065E070E029833A834B8358
:1004F0002EDF64EF71E0BCD0582F892F880F880B56
:100500002981250FE1E03A814B81251708F0E0E0D1
:10051000390F51E0391708F050E0E30F91E0E3178D
:1005200008F090E0592B480F31E0481708F030E010
:10053000540F91E0541708F090E0392BF80E91E039
:10054000F81608F090E0732F7F0D31E07F1508F06A
:1005500030E0932B080F31E0081708F030E0692FE6
:10056000600F91E0601708F090E0392B180F91E0D0
:10057000181708F090E0310F41E0311708F040E023
:10058000942BAD2DA80FF1E0A81708F0F0E09A0F1A
:1005900041E09A1708F040E04F2B8E0D480F209352
:1005A0008200E093830050938400709385006093F1
:1005B000860030938700909388004093890080E004
:1005C00090E06FE070E0C3DE8C01009709F4C4DDB9
:1005D000C80101978730910508F046C082E090E09D
:1005E0006AE070E0B4DE6C01EE24FF243AC0C8017A
:1005F00032DD84E090E07ADD38E2A32EB12C09C030
:1006000083EC99E00197F1F700C000000894A11C69
:10061000B11C80E090E06AE070E099DE87968A1570
:100620009B0574F78AE090E016DD84E090E05EDDE3
:1006300024E1A22EB12C09C0A3ECB9E01197F1F787
:1006400000C000000894A11CB11C80E090E06AE0AA
:1006500070E07DDE43968A159B0574F70894E11CD3
:10066000F11CEC14FD041CF28AE090E0F4DCF4CE02
:100670005527002480FF02C0060E571F660F771F04
:100680006115710521F096958795009799F7952F3B
:10069000802D089597FB092E07260AD077FD04D0F8
:1006A0000CD006D000201AF4709561957F4F089504
:1006B000F6F7909581959F4F0895AA1BBB1B51E1BA
:1006C00007C0AA1FBB1FA617B70710F0A61BB70BC2
:1006D000881F991F5A95A9F780959095BC01CD0167
:1006E0000895A0E0B0E0E6E7F3E086C0EC016881A1
:1006F00079818A819B81611571058105910521F4BC
:1007000064E279ED8BE597E02DE133EF41E050E0D5
:1007100050D079018A0127EA31E440E050E030D03E
:100720005B016C01C801B7012CEE34EF4FEF5FEFB6
:1007300027D09B01AC012A0D3B1D4C1D5D1D57FFB1
:1007400004C02150304040405048288339834A83B8
:100750005B833F77C901CDB7DEB7EAE069C0C1DF8F
:10076000089580E790E0BDDF0895A0E0B0E08093B9
:10077000700090937100A0937200B093730008957D
:10078000FF27EE27BB27AA2760FF04C0A20FB31FD5
:10079000E41FF51F220F331F441F551F96958795A1
:1007A0007795679589F70097760771F7CF01BD01B7
:1007B000089597FB092E05260ED057FD04D04BD087
:1007C0000AD0001C38F450954095309521953F4F44
:1007D0004F4F5F4F0895F6F790958095709561950E
:1007E0007F4F8F4F9F4F08952F923F924F925F926E
:1007F0006F927F928F929F92AF92BF92CF92DF9231
:10080000EF92FF920F931F93CF93DF93CDB7DEB795
:10081000CA1BDB0B0FB6F894DEBF0FBECDBF099429
:100820002A88398848885F846E847D848C849B8480
:10083000AA84B984C884DF80EE80FD800C811B818E
:10084000AA81B981CE0FD11D0FB6F894DEBF0FBEBD
:10085000CDBFED010895A1E21A2EAA1BBB1BFD011D
:100860000DC0AA1FBB1FEE1FFF1FA217B307E4078F
:10087000F50720F0A21BB30BE40BF50B661F771FE7
:10088000881F991F1A9469F76095709580959095C7
:0E0890009B01AC01BD01CF010895F894FFCF8C
:10089E000100010000000000000000000000000048
:0408AE000100000045
:00000001FF
