:1000000009C021C020C01FC01EC01DC01CC01BC015
:100010001AC019C011241FBECFE9CDBF10E0A4E65D
:10002000B0E001C01D92AC36B107E1F710E0A0E6E8
:10003000B0E0EAEAF3E002C005900D92A436B10701
:10004000D9F740D0B0C1DCCF0F931F93CF93DF938C
:10005000EC018B010CD19C01B8016F5F7F4F8FEFDA
:100060009FE79ED0C9019CD06C0F7D1FCB01DF9113
:10007000CF911F910F91089507C0EFECF7E03197F2
:10008000F1F700C0000001970097B9F70895C298F2
:10009000BA988DE087B986B1836C86B93699FECF60
:1000A000089597B18F70907F892B87B9369A3699CA
:1000B000FECF24B135B1932F80E030E0282B392BCF
:1000C000C90108950F931F93CF93DF93E0DF17BA11
:1000D000BC9ABB9AB99AC398C198C098C2E0D0E0C4
:1000E00001E010E081E0DDDF90936900809368001B
:1000F00080E090E064E670E0A7DFBE0151D090930D
:1001000065008093640020916A0030916B004091FB
:10011000680050916900241B350B37FF03C03095F0
:1001200021953F4F26303105ECF2009761F4109392
:10013000650000936400C39A86E990E09DDFC39850
:100140008AEF90E099DF80916400909165008130A2
:10015000910561F4D0936500C0936400C49A80EA6D
:1001600090E08ADFC4988AEF90E086DF8091640097
:10017000909165008230910561F4109265001092B3
:100180006400C19A80EA90E077DFC1988AEF90E03E
:1001900073DF81E086DF90936B0080936A00A2CFCB
:1001A00097FB092E07260AD077FD04D00CD006D085
:1001B00000201AF4709561957F4F0895F6F7909599
:1001C00081959F4F0895AA1BBB1B51E107C0AA1F31
:1001D000BB1FA617B70710F0A61BB70B881F991FE8
:1001E0005A95A9F780959095BC01CD010895A0E09E
:1001F000B0E0ECEFF0E086C0EC01688179818A81A3
:100200009B81611571058105910521F464E279ED09
:100210008BE597E02DE133EF41E050E050D07901DC
:100220008A0127EA31E440E050E030D05B016C0104
:10023000C801B7012CEE34EF4FEF5FEF27D09B01E1
:10024000AC012A0D3B1D4C1D5D1D57FF04C0215004
:10025000304040405048288339834A835B833F774E
:10026000C901CDB7DEB7EAE069C0C1DF089580E615
:1002700090E0BDDF0895A0E0B0E08093600090932F
:100280006100A0936200B09363000895FF27EE27FA
:10029000BB27AA2760FF04C0A20FB31FE41FF51FEE
:1002A000220F331F441F551F9695879577956795A5
:1002B00089F70097760771F7CF01BD01089597FB85
:1002C000092E05260ED057FD04D04BD00AD0001CB5
:1002D00038F450954095309521953F4F4F4F5F4FE3
:1002E0000895F6F790958095709561957F4F8F4FA3
:1002F0009F4F08952F923F924F925F926F927F92FD
:100300008F929F92AF92BF92CF92DF92EF92FF9225
:100310000F931F93CF93DF93CDB7DEB7CA1BDB0BD1
:100320000FB6F894DEBF0FBECDBF09942A88398876
:1003300048885F846E847D848C849B84AA84B9847D
:10034000C884DF80EE80FD800C811B81AA81B98189
:10035000CE0FD11D0FB6F894DEBF0FBECDBFED019D
:100360000895A1E21A2EAA1BBB1BFD010DC0AA1FF6
:10037000BB1FEE1FFF1FA217B307E407F50720F00E
:10038000A21BB30BE40BF50B661F771F881F991F89
:100390001A9469F760957095809590959B01AC01D2
:0A03A000BD01CF010895F894FFCFCE
:0403AA00010000004E
:00000001FF
