:100000000EC028C027C026C025C025C023C022C0DE
:1000100021C020C01FC01EC01DC01CC01BC0112499
:100020001FBECFE5D2E0DEBFCDBF11E0A0E6B0E05D
:10003000E8E0F6E102C005900D92AE36B107D9F7BF
:1000400011E0AEE6B1E001C01D92AB3AB107E1F7B5
:10005000F8D4D8CAD5CF1F920F920FB60F921124A1
:10006000DF92EF92FF920F931F932F933F934F9343
:100070005F936F937F938F939F93AF93BF93CF9330
:10008000DF93EF93FF938091890190918A018050D3
:100090009F4FE091810170918201609183015091A5
:1000A0008401409185013091860120918701F09172
:1000B00088010AC0885E9340EE2D7B2F6C2F5D2F48
:1000C000412F302F2F2DFD2DEE2EE394B1E0EE16B3
:1000D00008F0B0E0B70FC1E0B71708F0C0E0C60FF6
:1000E000D1E0C61708F0D0E0D50F11E0D51708F021
:1000F00010E0140F01E0141708F000E0030FA1E076
:10010000031708F0A0E0FA2EF20EA1E0F21608F0B4
:10011000A0E0DA2EDF0EA3E0893E9A0758F6E093BE
:100120008101709382016093830150938401409315
:1001300085013093860120938701F0938801909385
:100140008A0180938901FF91EF91DF91CF91BF9157
:10015000AF919F918F917F916F915F914F913F915F
:100160002F911F910F91FF90EF90DF900F900FBE96
:100170000F901F901895F894209181013091820181
:1001800040918301509184016091850170918601B5
:10019000809187019091880178940895F894813036
:1001A000910581F0823091051CF4009741F016C052
:1001B0008230910561F08330910581F40BC0C09AC3
:1001C000C19802C0C098C19AC29AC39807C0C0988B
:1001D000C19A02C0C09AC198C298C39A78940895EF
:1001E0002F923F924F925F926F927F928F929F9247
:1001F000AF92BF92CF92DF92EF92FF920F931F9335
:10020000DF93CF93CDB7DEB7A1970FB6F894DEBFDB
:100210000FBECDBF9A83898397FF06C0222733275D
:10022000281B390B3A832983181619063CF481E000
:1002300090E0909398018093970106C0009721F079
:10024000109298011092970118861F8289819A81D5
:10025000AA2797FDA095BA2F8D879E87AF87B88B69
:1002600089819A810A979C01442737FD4095542F34
:10027000298B3A8B4B8B5C8B89819A8105979C01EA
:10028000442737FD4095542F2D8B3E8B4F8B588F35
:1002900089819A8103979C01442737FD4095542F0B
:1002A000298F3A8F4B8F5C8F89819A8101979C01AE
:1002B000442737FD4095542F2D8F3E8F4F8F58A3E5
:1002C0009EC28F819885AA2797FDA095BA2F89870E
:1002D0009A87AB87BC8722E330E040E050E0209370
:1002E000990130939A0140939B0150939C014F8157
:1002F0005885453051050CF485C169857A858B8513
:100300009C8527D66B837C838D839E836D857E85BC
:100310008F8598891ED62B013C012DEC3CEC4CE4DA
:100320005DE3A1D48B017C01712F9F2D20E030E093
:1003300040EA50E4B8D587FD06C000E010E070EA5E
:10034000E72E60E4F62E6B817C818D819E81202FCB
:10035000312F4E2D5F2DD2D518162CF02EE130E026
:1003600040E050E016C1C301B2012DEC3CEC4CEC76
:100370005DE379D48B017C01712F9F2D20E030E06B
:1003800040E251E490D587FD06C000E010E050E265
:10039000E52E41E4F42E6B817C818D819E81202F9E
:1003A000312F4E2D5F2DAAD518162CF084E190E048
:1003B000A0E0B0E02BC1C301B2012AE939E949E16B
:1003C0005EE351D48B017C01712F9F2D20E030E042
:1003D00040E751E468D587FD06C000E010E030E753
:1003E000E32E21E4F22E6B817C818D819E81202F72
:1003F000312F4E2D5F2D82D518162CF02CE030E0D9
:1004000040E050E0C6C0C301B2012DEC3CEC4CE42E
:100410005EE329D48B017C01712F9F2D20E030E019
:1004200040EA51E440D587FD06C000E010E090EAC4
:10043000E92E81E4F82E6B817C818D819E81202FB5
:10044000312F4E2D5F2D5AD518162CF08AE090E0F2
:10045000A0E0B0E0DBC069897A898B899C8979D575
:10046000F62EE72EC82E892EC301B2012DEC3CECEE
:100470004CE45FE3F8D31B01182F092FA701652F68
:10048000742F8C2D982DF801222D332D4F2F5E2F98
:100490000AD587FF04C02F2C3E2C1C2D082D6B8104
:1004A0007C818D819E81F801222D332D4F2F502F7D
:1004B00025D518162CF02AE030E040E050E069C065
:1004C0006D897E898F89988D44D5F62EE72EC82EAA
:1004D000892EC301B2012AE939E949E55FE3C3D3B3
:1004E0001B01182F092FA701652F742F8C2D982D14
:1004F000F801222D332D4F2F5E2FD5D487FF04C056
:100500002F2C3E2C1C2D082D6B817C818D819E8192
:10051000F801222D332D4F2F502FF0D418162CF028
:100520008CE090E0A0E0B0E071C0698D7A8D8B8D99
:100530009C8D0FD5F62EE72EC82E892EC301B20151
:1005400026E636E646E65FE38ED31B01182F092F19
:10055000A701652F742F8C2D982DF801222D332D96
:100560004F2F5E2FA0D487FF04C02F2C3E2C1C2DB4
:10057000082D6B817C818D819E81F801222D332D88
:100580004F2F502FBBD418166CF024E130E040E020
:1005900050E02093990130939A0140939B0150932E
:1005A0009C013CC06D8D7E8D8F8D98A1D2D4F62E8E
:1005B000E72EC82E892EC301B20123E333E343E7BC
:1005C0005FE351D33B01182F092FA701652F742F2B
:1005D0008C2D982DF801262D372D4F2F5E2F63D4AB
:1005E00087FF04C06F2C7E2C1C2D082D6B817C8115
:1005F0008D819E81F801262D372D4F2F502F28D425
:10060000181664F488E290E0A0E0B0E080939901CD
:1006100090939A01A0939B01B0939C01ACDDF901EA
:10062000DA016B8379A30091990110919A012091CD
:100630009B0130919C0140E050E0BA01C090A501BF
:10064000D090A601E090A701F090A8012D2C3E2C9F
:100650004F2C46015701BB0C8808982C5401582C8C
:10066000682C782CEE2EEC18CC24C394EE1508F0F0
:10067000CC24FF2EF218E1E0FF1508F0E0E0FF2D9A
:10068000FC19CC24C394FF1608F0CC24EC29CA2E04
:10069000C318FF24F394AC1508F0FF24AC2DAE1B57
:1006A000E1E0CA1608F0E0E0FE2ACB2EC418E1E033
:1006B000BC1508F0E0E0BC2DBF19FB2EB1E0CF1453
:1006C00008F0B0E0EB2BCB80C518B1E0DB80DC1488
:1006D00008F0B0E05C2C5E1AE1E0C51408F0E0E040
:1006E000BE2BC9A0C618E1E0D9A0DC1408F0E0E0F8
:1006F000DC2CDB1ABD2D66246394CD1408F066242F
:10070000E629C82EC718772473948C1508F077242F
:100710008C2D8E1BE1E0C81608F0E0E07E2A9819C7
:100720009719971708F4D7CD791709F5861708F4A4
:10073000D2CD6817E1F4B51708F4CDCD5B17B9F445
:10074000541608F4C8CD451591F4F31608F4C3CD3A
:100750003F1569F4A21708F4BECD2A1741F4F1172A
:1007600008F4B9CD1F1719F4E01608F4B4CD2F81A1
:1007700038852F5F3F4F38872F83FDDC2093A501FD
:100780003093A6014093A7015093A801809197014F
:1007900090919801181619069CF480917F01909110
:1007A000800101969093800180937F0149815A8155
:1007B00084179507E1F41092800110927F0117C011
:1007C0000097A9F480917F0190918001009731F406
:1007D00089819A819093800180937F0180917F012C
:1007E0009091800101979093800180937F01809187
:1007F0007F019091800164E070E001D6CFDCA98197
:10080000BA81EF81F885AE17BF0709F05ACDA196DE
:100810000FB6F894DEBF0FBECDBFCF91DF911F9111
:100820000F91FF90EF90DF90CF90BF90AF909F908F
:100830008F907F906F905F904F903F902F90089592
:100840008CE087B98FE99FE00197F1F700C00000C5
:10085000369A3699FECF24B135B1932F80E030E03F
:10086000282B392B442737FD4095542F64EB7BE22E
:1008700081E190E0D7D5C90108950AC02FE738E398
:1008800041E0215030404040E1F700C000000197B6
:100890000097A1F708950F931F93CF93DF93EC0177
:1008A0008B0188D69C01B8016F5F7F4F8FEF9FE768
:1008B000A6D5C901A4D56C0F7D1FCB01DF91CF91C7
:1008C0001F910F910895C498BC988DE087B986B1A7
:1008D000836C86B93699FECF08959DE097B997B19C
:1008E0008F70907F892B87B9369A3699FECF24B1C5
:1008F00035B1932F80E030E0282B392BC9010895C2
:10090000E2DF17BABB9ABA9AB99AB89A88E190E02E
:10091000A0E0B0E08093990190939A01A0939B018D
:10092000B0939C01F89483B7826083BF89B78260DB
:1009300089BF789420DCA22FA854F1E0A21708F018
:10094000F0E0E32FE55FB1E0E31708F0B0E0FE0F61
:1009500021E0FE1708F020E02B2B240FE1E0241704
:1009600008F0E0E0E50F31E0E51708F030E0532F44
:10097000560F41E0561708F040E0470F31E04717A7
:1009800008F030E0380F61E0381708F060E0690FD8
:10099000A0936E01F0936F0120937001E0937101B9
:1009A0005093720140937301309374016093750109
:1009B000E2DBA22FA857F1E0A21708F0F0E0E32F46
:1009C000ED5EB1E0E31708F0B0E0FE0F21E0FE17A6
:1009D00008F020E02B2B240FE1E0241708F0E0E0E2
:1009E000E50F31E0E51708F030E0532F560F41E0F6
:1009F000561708F040E0470F31E0471708F030E0A5
:100A0000380F61E0381708F060E0690FA0937601B5
:100A1000F093770120937801E093790150937A0164
:100A200040937B0130937C0160937D0182E055DF30
:100A30009093940180939301909361008093600060
:100A400008959F92AF92BF92CF92DF92EF92FF9262
:100A50000F931F93CF93DF9353DFC4E6D0E0992425
:100A6000939482E03ADF90939401809393010597E9
:100A700021E0803F920740F0D0939401C09393010E
:100A8000D0936100C0936000A0906E01B0906F01A0
:100A9000C0907001D09071011091720100917301AA
:100AA000F0907401E090750166DBE91620F19E1567
:100AB00009F06AC0F816F8F08F1509F065C007173D
:100AC000D0F0701709F060C01617A8F0611709F090
:100AD0005BC0D51680F05D1509F056C0C41658F0FD
:100AE0004C1509F051C0B31630F03B1509F04CC05D
:100AF000A21608F049C08091930190919401499702
:100B0000909361008093600036DBA22FA855F1E03E
:100B1000A21708F0F0E0E32FEF59B1E0E31708F077
:100B2000B0E0FE0F21E0FE1708F020E02B2B240F91
:100B3000E1E0241708F0E0E0E50F31E0E51708F008
:100B400030E0532F560F41E0561708F040E0470FB2
:100B500031E0471708F030E0380F61E0381708F04F
:100B600060E0690FA0936E01F0936F012093700114
:100B7000E0937101509372014093730130937401BB
:100B80006093750190927E01809160009091610068
:100B90002091930130919401821B930B97FF03C026
:100BA000909581959F4F833391052CF420917E0180
:100BB000213009F056CF64E670E00FD421E0843F85
:100BC000920714F484EF91E08C599F4F09DB8CE07D
:100BD0009EEF06DB809193019091940190936100C8
:100BE00080936000C8DAA22FA855F1E0A21708F0A0
:100BF000F0E0E32FEF59B1E0E31708F0B0E0FE0FAB
:100C000021E0FE1708F020E02B2B240FE1E0241751
:100C100008F0E0E0E50F31E0E51708F030E0532F91
:100C2000560F41E0561708F040E0470F31E04717F4
:100C300008F030E0380F61E0381708F060E0690F25
:100C4000A0936E01F0936F0120937001E093710106
:100C50005093720140937301309374016093750156
:100C600010927E01FECEA0E2B0E0E8E3F6E02BC4F5
:100C700069837A838B839C832D833E834F8358873C
:100C8000CE010196BE01675F7F4FE5D2CE0105968A
:100C9000BE016F5E7F4FDFD29985923078F08989EF
:100CA0008230C0F0943019F4823041F4CBC08430EB
:100CB00019F4923079F4C6C0923051F481E02A855B
:100CC0009A89291709F480E08A87CE010996BCC069
:100CD000823051F481E02A859A89291709F480E04D
:100CE0008A8BCE014196B0C06D847E848F849888B3
:100CF000ED88FE880F89188DE0E2F0E080E090E05A
:100D0000DC01AA24BB24650120E030E0A901B30185
:100D10006170707061157105D1F02E0D3F1D401F7F
:100D2000511F15012601280E391E4A1E5B1E81E047
:100D300090E0A0E0B0E02E153F054007510718F005
:100D400080E090E0DC01820D931DA41DB51DAA0C6E
:100D5000BB1CCC1CDD1C17FF09C061E0262E312C0A
:100D6000412C512CA228B328C428D528319749F00A
:100D7000EE0CFF1C001F111F9694879477946794C4
:100D8000C6CF6B897C89EB85FC856E0F7F1F6E5FFC
:100D90007F4F7C8F6B8F61E0EA857A89E71709F4D2
:100DA00060E06A8F6B8D7C8D10C0FC01E170F0708B
:100DB000309729F056954795379527955068B69501
:100DC000A795979587956F5F7F4FB7FDEECF0CC0C6
:100DD000880F991FAA1FBB1F57FD8160220F331F69
:100DE000441F551F615070408030E0E09E07E0E0F6
:100DF000AE07E0E4BE0760F36B8F7C8F6FE7E62EF3
:100E0000F12C012D112DE822F9220A231B2360E485
:100E1000E616F1040105110561F487FD0AC02115EC
:100E200031054105510529F0805C9F4FAF4FBF4F01
:100E300080788D8F9E8FAF8FB8A383E0898FCE018E
:100E4000499602C082E690E03AD1A096E2E157C30B
:100E5000A8E1B0E0EDE2F7E042C369837A838B83D7
:100E60009C832D833E834F8358878E01075F1F4FDE
:100E7000CE010196B801EFD181E1E82EF12CEC0E04
:100E8000FD1ECE010596B701E6D18985823038F086
:100E90008989823020F0C801B70146D201C08FEFA6
:100EA0006896E6E038C3A8E1B0E0E8E5F7E017C3EC
:100EB00069837A838B839C832D833E834F835887FA
:100EC0008E01075F1F4FCE010196B801C4D181E1A9
:100ED000E82EF12CEC0EFD1ECE010596B701BBD11C
:100EE0008985823038F08989823020F0C801B701C5
:100EF0001BD201C081E06896E6E00DC3A8E1B0E036
:100F0000E3E8F7E0ECC269837A838B839C832D83CB
:100F10003E834F8358878E01075F1F4FCE01019696
:100F2000B80199D181E1E82EF12CEC0EFD1ECE0125
:100F30000596B70190D18985823038F08989823051
:100F400020F0C801B701F0D101C081E06896E6E069
:100F5000E2C2A8E0B0E0EEEAF7E0C1C27B018C019A
:100F600083E08983D801C7018827B7FD8395992736
:100F7000AA27BB27282F8A83E114F1040105110554
:100F800019F482E0898336C08EE190E09C838B83E4
:100F9000222389F080E0E81680E0F80680E0080768
:100FA00080E8180759F110950095F094E094E11C41
:100FB000F11C011D111DED82FE820F831887C801EF
:100FC000B70123D09C01215030401216130694F42F
:100FD000022E04C0EE0CFF1C001F111F0A94D2F752
:100FE000ED82FE820F8318878EE190E0821B930BC7
:100FF0009C838B83CE01019662D004C060E070E0D8
:1010000080E09FEC2896E6E086C2AF92BF92CF9236
:10101000DF92EF92FF920F931F937B018C0180E090
:10102000E81680E0F80681E0080780E0180758F429
:10103000EFEFEE16F1040105110509F090F480E0E0
:1010400090E0DC0117C0F0E0EF16F0E0FF06F0E002
:101050000F07F1E01F0750F480E190E0A0E0B0E05E
:1010600009C088E090E0A0E0B0E004C088E190E032
:10107000A0E0B0E020E230E040E050E0281B390B77
:101080004A0B5B0B5701680104C0D694C794B79410
:10109000A7948A95D2F7D601C50186599F4FFC01C6
:1010A0008081281B310941095109C9011F910F9104
:1010B000FF90EF90DF90CF90BF90AF900895EF92A8
:1010C000FF920F931F93CF93DF93FC01248135810F
:1010D0004681578161818081823020F44061EFEF49
:1010E000F0E0A3C0843009F49BC0823009F492C0C0
:1010F000211531054105510509F48FC00280F381A6
:10110000E02D7FEFE238F7070CF05AC0C2E8DFEFBE
:10111000CE1BDF0BCA31D1056CF579018A010C2E8B
:1011200004C016950795F794E7940A94D2F781E0E6
:1011300090E0A0E0B0E00C2E04C0880F991FAA1F19
:10114000BB1F0A94D2F70197A109B1098223932307
:10115000A423B52321E030E040E050E00097A10552
:10116000B10519F420E030E0A9012E293F29402BD8
:10117000512B03C020E030E0A901DA01C9018F77CB
:101180009070A070B07080349105A105B10539F45C
:1011900027FF09C0205C3F4F4F4F5F4F04C0215CC9
:1011A0003F4F4F4F5F4FE1E0F0E0203080E03807E5
:1011B00080E0480780E4580728F5E0E0F0E022C02E
:1011C000E038F1056CF5E158FF4FDA01C9018F777E
:1011D0009070A070B07080349105A105B10539F40C
:1011E00027FF09C0205C3F4F4F4F5F4F04C0215C79
:1011F0003F4F4F4F5F4F57FF05C056954795379567
:101200002795319687E056954795379527958A9586
:10121000D1F70BC0E0E0F0E005C0E0E0F0E005C091
:10122000EFEFF0E020E030E0A9018E2F87958827CE
:101230008795942F9F77679566276795E695A92FE1
:10124000A82BFE2FF62B622F732F8A2F9F2FCDB73F
:10125000DEB7E6E060C1DC01FB012C9111963C9108
:10126000119712968C911297482F4F7750E0982F34
:10127000991F9927991F13966C911397862F880FA2
:10128000892B90E0661F6627661F6183009739F5FA
:10129000211531054105510511F482E029C082E88C
:1012A0009FEF9383828367E0220F331F441F551FF4
:1012B0006A95D1F783E0808309C0220F331F441F52
:1012C000551F82819381019793838283203080E030
:1012D000380780E0480780E4580778F320C08F3F44
:1012E000910579F4211531054105510519F484E082
:1012F0008083089544FF03C081E0808310C0108282
:101300000EC08F5790409383828383E0808387E071
:10131000220F331F441F551F8A95D1F75064248331
:101320003583468357830895FC01DB019081923019
:1013300008F449C08C91823008F445C0943051F4CF
:1013400061818430B1F511962C91119730E0261B04
:10135000310941C0843021F0923041F48230B1F142
:1013600011968C9111978823A1F12DC06181823053
:1013700001F111968C9111976817D9F4228133816C
:1013800012968D919C9113978217930794F02817CA
:101390003907BCF0248135814681578114968D919F
:1013A0009D910D90BC91A02D82179307A407B507BE
:1013B00018F4662341F00DC0281739074A075B0768
:1013C00028F4662331F021E030E005C020E030E071
:1013D00002C02FEF3FEFC90108955527002480FF79
:1013E00002C0060E571F660F771F6115710521F0A9
:1013F00096958795009799F7952F802D089597FBDF
:10140000092E07260AD077FD04D027D006D0002069
:101410001AF4709561957F4F0895F6F79095819530
:101420009F4F089597FB092E05260ED057FD04D037
:1014300028D00AD0001C38F450954095309521955D
:101440003F4F4F4F5F4F0895F6F7909580957095F9
:1014500061957F4F8F4F9F4F0895AA1BBB1B51E192
:1014600007C0AA1FBB1FA617B70710F0A61BB70B14
:10147000881F991F5A95A9F780959095BC01CD01B9
:101480000895A1E21A2EAA1BBB1BFD010DC0AA1FC5
:10149000BB1FEE1FFF1FA217B307E407F50720F0DD
:1014A000A21BB30BE40BF50B661F771F881F991F58
:1014B0001A9469F760957095809590959B01AC01A1
:1014C000BD01CF0108952F923F924F925F926F928C
:1014D0007F928F929F92AF92BF92CF92DF92EF92C4
:1014E000FF920F931F93CF93DF93CDB7DEB7CA1B45
:1014F000DB0B0FB6F894DEBF0FBECDBF09942A8870
:10150000398848885F846E847D848C849B84AA8417
:10151000B984C884DF80EE80FD800C811B81AA81A4
:10152000B981CE0FD11D0FB6F894DEBF0FBECDBF6F
:10153000ED010895A0E0B0E0EFE9FAE0CCCFEC01D6
:10154000688179818A819B81611571058105910589
:1015500021F464E279ED8BE597E02DE133EF41E092
:1015600050E060DF79018A0127EA31E440E050E091
:1015700030D05B016C01C801B7012CEE34EF4FEFA6
:101580005FEF27D09B01AC012A0D3B1D4C1D5D1D5B
:1015900057FF04C0215030404040504828833983D1
:1015A0004A835B833F77C901CDB7DEB7EAE0AFCFAF
:1015B000C1DF08958AE691E0BDDF0895A0E0B0E0C4
:1015C00080936A0190936B01A0936C01B0936D01BD
:1015D0000895FF27EE27BB27AA2760FF04C0A20FAC
:1015E000B31FE41FF51F220F331F441F551F96958D
:1015F00087957795679589F70097760771F7CF01FB
:08160000BD010895F894FFCF2D
:10160800E8030000000000000000000102020303DC
:10161800030304040404040404040505050505057E
:10162800050505050505050505050606060606065C
:101638000606060606060606060606060606060642
:10164800060606060606060606060707070707072C
:101658000707070707070707070707070707070712
:101668000707070707070707070707070707070702
:1016780007070707070707070707070707070707F2
:1016880007070707070707070707080808080808DC
:1016980008080808080808080808080808080808C2
:1016A80008080808080808080808080808080808B2
:1016B80008080808080808080808080808080808A2
:1016C8000808080808080808080808080808080892
:1016D8000808080808080808080808080808080882
:1016E8000808080808080808080808080808080872
:1016F8000808080808080808080808080808080862
:0E170800080808080808080808080100000082
:00000001FF
