:1000000009C016C015C014C013C012C011C010C062
:100010000FC00EC011241FBECFE9CDBF10E0A0E677
:10002000B0E001C01D92A236B107E1F702D069C06D
:10003000E7CFB89A8FB589688FBD84E686BF86B151
:10004000836886B987B1816287B92DEF30E0379A2E
:10005000369A3699FECF369A01C037983699FDCF39
:10006000109261001092600012C08FEF90EEA0E03D
:1000700081509040A040E1F700C0000080916000F6
:10008000909161000196909361008093600080914F
:10009000600090916100843691053CF383B78260E3
:1000A00083BF8FEF96E7A1E081509040A040E1F739
:1000B00000C00000309361002093600017C0809161
:1000C00060009091610086BF8FEF9DEEA2E08150AD
:1000D0009040A040E1F700C0000080916000909146
:1000E00061000497909361008093600080916000AC
:1000F000909161001816190614F383B78D7F83BFA2
:06010000A6CFF894FFCF2A
:00000001FF
